:020000040000fa
:080000000002040000000000f2
:020000040000fa
:10040000af8420000e7f22000e0188000000000053
:1004100000012000200288000c000700c02c2500ed
:100420000100200011000700000020000000e00093
:100430000200320000000200000000002450020010
:10044000000000000040da000000fe004440a90067
:10045000000020000000e000030032000000200047
:10046000a00188004440a800000006009101880017
:10047000800078000000eb0015003700e2804000ab
:1004800032a0b4009101ba00e280400032a0b40072
:100490009102ba00e280400032a0b4000002eb00fa
:1004a000472bde00f507b200602ce10004003a00a3
:1004b0000059eb008301e900fdff3e000400370016
:1004c0006128e100010032000082eb000400070017
:1004d0001101ba000200e000e8ff3a000000060047
:1004e0003159ba008301e9000c0032002159ba00e9
:1004f0008301e900080032000400e00003003a0034
:10050000e280400032a0b400f5ff370011d9ba00f4
:100510008301e900faff3a008100e800e180400031
:1005200032a0b4000000060000000000000000003f
:100530003600f800809fbe00829fbe00849fbe00f0
:10054000869fbe000000fa008460a9000040eb0016
:100550002f0107000080fa004f03be004f02be00cb
:100560004f01be004f00be003600f90000400600fb
:100570003600f800809fbe00829fbe00849fbe00b0
:10058000869fbe000000fa0084e0a90010c0b300fe
:100590001f0107000080fa004f03be004f02be009b
:1005a0004f01be004f00be003600f90000400600bb
:1005b0003600f800809fbe00829fbe00849fbe0070
:1005c000869fbe000000fa008500a90020c0b3008d
:1005d0000f0107000080fa004f03be004f02be006b
:1005e0004f01be004f00be003600f900004006007b
:1005f0003600f800809fbe00829fbe00849fbe0030
:10060000869fbe000000fa008760a90030c0b300da
:10061000ff0007000080fa004f03be004f02be003b
:100620004f01be004f00be003600f900004006003a
:100630003600f800809fbe00829fbe00849fbe00ef
:10064000869fbe000000fa008780a90040c0b3006a
:10065000ef0007000080fa004f03be004f02be000b
:100660004f01be004f00be003600f90000400600fa
:100670000600fa00881f7800004f780012079800e3
:10068000230798001e029000ae0290000200240092
:1006900023f420000400be00da0207000002be00be
:1006a00061024200e0824a000401be000000200016
:1006b00011002000d30207000002be00a440880001
:1006c000b54088001e4278000484fb001e029000a2
:1006d000ae02900002242400f30020000400be00bb
:1006e000c80207000002be00c243dd0006802000f1
:1006f00006834300048bbe001e407800b000070054
:100700004f0478000080fa00000006000c00fa0098
:100710004047980032079800430798005107980017
:100720004e4290000482fb00c222dd00e4812000e2
:10073000048242003e039000ce039000068abe0071
:100740004e4290000482fb00840242002483200079
:1007500004824200de039000070a7800a440800073
:10076000b54080003e039000ce039000840f5300fc
:10077000858f5b0004003600a4408000b5408000f7
:1007800034079800450798004e4290000480fb0013
:100790004e4290000482fb00c222dd00e481200072
:1007a000048242001403be003e029000ce0290007c
:1007b0000402530085825b00c203dd00e681200055
:1007c00006834300048bbe004e4290008482fb00ef
:1007d000848120008482420014c0b300844a7800df
:1007e0004e4290000482fb00c222dd000480200003
:1007f000048242001402be003e03900005b3b9001b
:1008000006037800ce03900004b8b9008003780096
:100810000703430004027800be0290000522b800de
:100820000503430086027800482bdd004822de00e5
:1008300004027300c82ade00048fbe004e429000fe
:100840000482fb00cfa2de0046002000070020004b
:10085000860f5200878f5a0042003e00046001005c
:10086000040037000f0037001a003700250037005a
:10087000300037001e027800140888000002eb00e8
:10088000040888008460a9009460a80024088000ff
:100890000440a0000450a0002408880005e1a8003e
:1008a000300037001e027800640888000002eb0068
:1008b0003408880084e0a90094e0a800840880003f
:1008c0000440a0000450a0008408880011e1a800a2
:1008d000240037001e027800740888000002eb0034
:1008e000540888008500a9009500a800940880009d
:1008f0000440a0000450a0009408880013e1a80060
:10090000180037001e027800d40888000002eb00af
:10091000a40888008760a9009760a800f4088000f8
:100920000440a0000450a000f40888001fe1a800c3
:100930000c0037001e027800e40888000002eb007b
:10094000c40888008780a9009780a8000409800057
:100950000440a0000450a0000409880021e1a80080
:10096000000000000080fa00000006000200fa000b
:10097000004f78001e407800900007009e427800eb
:100980000582fb008402420024832000048242008e
:1009900014027800e00f5200070032009e427800f7
:1009a0000582fb008402420024832000048242006e
:1009b00014027800040001000080fa000000060024
:1009c0000200fa00004f78001e4078007b0007000c
:1009d0000080fa00000006000200fa00004f7800d4
:1009e0001e4278008482fb00848120000482420041
:1009f000144278000404a2000482fb000402e9000f
:100a00004f22de00040078000080fa00000006009b
:100a10000600fa00404798004e4290000482fb0016
:100a2000c222dd00e4812000048242001402be00e4
:100a3000e00f5200e08f5a005c0032004e429000fe
:100a40000482fb00c222dd00e48120000482420017
:100a50001403be00a4408000b5408000840f530002
:100a6000858f5b00400031004e4290000482fb0005
:100a7000c222dd00e4812000048242001403be0093
:100a80004e4290000482fb00c222dd000480200060
:100a9000048242001402be0004b8b90000007800cd
:100aa00006a9b90082007800010040000603780022
:100ab000040278000432b80005004000800278008b
:100ac000482bdd004822de0004027300c82ade0045
:100ad000048fbe004e4290000482fb00cfa2de00d5
:100ae0004600200007002000860f5200878f5a0022
:100af00015003e00046001000400370006003700c6
:100b0000080037000a0037000c0037001e0278008a
:100b1000140888000c0037001e0278006408880062
:100b2000090037001e0278007408880006003700ac
:100b30001e027800d4088800030037001e027800e7
:100b4000e4088800000000004e4290000482fb0090
:100b5000c222dd00e4812000048342006022b8004c
:100b6000048bbe00130037004e4290000480fb004f
:100b70004e4290000482fb00c222dd00e48120008e
:100b8000048242001403be00a4408000b5408000ef
:100b90000402530085825b00c203dd00e681200071
:100ba00006834300048bbe00020037004e409000d5
:100bb0006eff07000080fa00000006000200fa0045
:100bc000004f78009e4278000582fb00cfa2de0035
:100bd0004600200007002000860f5200878f5a0031
:100be0001f003e00046001000400370008003700c9
:100bf0000c00370010003700140037009460a90083
:100c00000002eb00240888008460a900140037006b
:100c100094e0a9000002eb008408880084e0a900a9
:100c20000f0037009500a9000002eb00940888002f
:100c30008500a9000a0037009760a9000002eb00b8
:100c4000f40888008760a900050037009780a90094
:100c50000002eb00040988008780a9000000000062
:100c60001e4278008482fb0084812000848242003e
:100c70000042eb00844a78000080fa000000060081
:100c80000040da000000fe000000fa0007e2a900c0
:100c90009600a9009620a9008600a9008620a90038
:100ca0000080fa00000006000000fa0017e2a90028
:100cb0009a20a9009a40a9008a20a9008a40a90088
:100cc0000080fa00000006000000fa0000000000aa
:100cd0003410800061026200e00f5200fcff3a0015
:100ce0003410800062026200e00f5200f8ff3a0008
:100cf0003410800064026200e00f5200f4ff3a00fa
:100d00003410800068026200e00f5200f0ff3a00e9
:100d10003410800070026200e00f5200ecff3a00d5
:100d2000451080000400240004826200e00f52009d
:100d3000e7ff3a000080fa00000006000000fa0019
:100d400000000000b410800061026200e00f520059
:100d5000fcff3a00b410800062026200e00f520013
:100d6000f8ff3a00b410800064026200e00f520005
:100d7000f4ff3a00b410800068026200e00f5200f5
:100d8000f0ff3a00b410800070026200e00f5200e1
:100d9000ecff3a00c51080000400240004826200c9
:100da000e00f5200e7ff3a000080fa000000060062
:100db0000800fa00100798002107980032079800f1
:100dc0000002eb00040f7800270037000662a8003d
:100dd000080037009e0278003e029000848f520087
:100de000020031001e0fe800020037001e029000d2
:100df00021003700a200070000427800e04f5200b7
:100e0000f4ff32000002eb00040f780004108000b1
:100e100004427800ae029000844a78002e029000ce
:100e20000402e800240798001e0290000402e90072
:100e3000140798001e029000e00f520003003a00d1
:100e400006a2a8000682a8000300370006a2a90097
:100e50000682a800000000003410800070026200ca
:100e6000e00f5200fcff3a001e029000e00f52001b
:100e7000d6ff3a000002eb00040078000080fa0080
:100e8000000006000800fa001007980021079800eb
:100e9000320798000002eb00040f780027003700ab
:100ea0001662a800080037009e0278003e029000fb
:100eb000848f5200020031001e0fe800020037004c
:100ec0001e029000210037007400070000427800e5
:100ed000e04f5200f4ff32000002eb00040f7800f4
:100ee0008410800004427800ae029000844a7800aa
:100ef0002e0290000402e800240798001e029000d1
:100f00000402e900140798001e029000e00f52004e
:100f100003003a0016a2a8001682a80003003700ba
:100f200016a2a9001682a80000000000b4108000dc
:100f300070026200e00f5200fcff3a001e029000b7
:100f4000e00f5200d6ff3a000002eb0004007800e8
:100f50000080fa00000006000200fa00004f78004e
:100f60009e4278000582fb00141088004510800026
:100f70000408200004826200e00f520002003200e8
:100f800000c2eb00010037000042eb000440780093
:100f90000080fa00000006000200fa00004f78000e
:100fa0009e4278000582fb0094108800c5108000e6
:100fb0000408200004826200e00f520002003200a8
:100fc00000c2eb00010037000042eb000440780053
:100fd0000080fa00000006000400fa00000f78000c
:100fe000110798001e029000241088001e0278004d
:100ff000341088000080fa00000006000400fa00a7
:10100000000f7800110798001e029000a4108800bd
:101010001e027800b41088000080fa00000006006c
:101020000000fa000622a8000080fa000000060076
:101030000000fa001622a8000080fa000000060056
:101040000000fa000602a8000080fa000000060076
:101050000000fa001602a8000080fa000000060056
:101060000000fa000642a8000080fa000000060016
:101070000000fa001642a8000080fa0000000600f6
:101080000000fa00441080000402d10061426200b6
:10109000044078000080fa00000006000000fa001a
:1010a000c41080000402d100614262000440780054
:1010b0000080fa00000006008f1fd100bf0007006b
:1010c0008f87e9000000e00000000600809feb0031
:1010d000ba0007008f87e9000000e000000006006a
:1010e000839f68000100e00002003d0060001000e6
:1010f000e08018000300e00002003d0060011100e4
:10110000e08119003f0007004f00e00002003b00b3
:1011100060001000e0801800000006000001be0022
:10112000230007000470a70003f0a10003f8a30048
:1011300013003a006509b1001000320009003500c3
:101140006928e100020035000100280000000500c8
:1011500000004000818048008502e900fcff3a0061
:1011600000000600f88f4200050035008100d10024
:101170000080d3008502e800fcff3a000000060072
:101180008000eb00000005006011b800ed003700a2
:101190000001eb00c4000700040032000200200040
:1011a00003f8230001f0a700260007000000060056
:1011b000c70ade00f107b200f50fb20008003200e6
:1011c000e1cf4200020032000170a00024000500bf
:1011d000810f700001003200040805004400050082
:1011e000810f700002003a00140005008502e9003a
:1011f0000000400081c04800fcff3b000170a000df
:10120000240005006022b800060220000000d00083
:101210008180d2000482d2008582d2000000a0002a
:101220000202520083825a0003003100020242008f
:1012300083824a000000a1000603e900f3ff3a00a0
:101240000000060003f0a200889fbe008a9fbe0037
:101250008c1f780010010700170133006450e10073
:101260004f0032006420e1005200320003826c0023
:1012700007003b000905d0000306d000820f540090
:101280000c065d000200390002003200890178007e
:10129000030678008582550004003d000003fd0030
:1012a0008103fd008502ea008b854200840f7200f5
:1012b00002003b0060001000e08018006011b800e0
:1012c0000005eb007a28e1000a00390006007800ea
:1012d000c75ddd00f707b200878075002d0037007d
:1012e000828171000a017800610560008180d1006f
:1012f0000080d3008502e900f9ff3b0006044000ae
:101300008784480002003b0060041400e0841c0055
:101310000988a300070032008a8171008281710070
:10132000610164008904d1000884d3008b05e800c2
:10133000170037000978a30013003a000b00e00003
:10134000130034008b05e9000804440089844c0034
:101350000a4474000978a3000d003a000b00e00075
:10136000070034008b05e9000804440089844c0020
:1013700001003a000b0020000978a300f7ff3200bb
:101380000001eb0002003700828171000a01780041
:101390009b0007000cf0a70001f0a000cf00370071
:1013a0006420e10002003a00838f6c00cf0033001c
:1013b0000801be000200be00c8003700889fbe00c2
:1013c0008a9fbe008c9fbe000404be000605be00be
:1013d000809fbe00829fbe002100070004067800a7
:1013e0000800be000a01be001d0007008406780048
:1013f0004f03be004f02be008d4f76007fb09700b6
:1014000013003300f0ff2f008b8f6b0006003b00b2
:101410000d0666000c00a7000a00370007f0a600c2
:10142000100020000a003700880f5200898f5a00f0
:101430008a0f5b008b8f5b000300390010002000d7
:1014400001003e000000200007f0a7000000ea00b5
:101450004f06be004f05be004f04be000000060050
:1014600005ff270005826100070032000428e10023
:1014700001003200240005000600070001003a00c8
:10148000440005000408050002000700f9ff3a00c7
:10149000140005006f8261008102700085027100f6
:1014a0008502720000000600889fbe008a9fbe0071
:1014b0000003be003eff07008505780082815200d0
:1014c000020020006220e10004003a00f307b100ae
:1014d000040035007718e100040035000600be0066
:1014e000140037006000b8000f003700f50f20002f
:1014f000faff2f008502d1000a85d3008301e9009d
:10150000fcff3b008184620000046500890f7400c9
:10151000f2ff32008582ea000a85ea0081846200d7
:10152000000465003600070007f0a70001f0a000e6
:101530000081eb000200e0004f05be004f04be003a
:1015400000000600889fbe008a9fbe0000827000d7
:101550000402710004827100260032000004be0003
:101560000200be006011b8006b0920009502200047
:101570000182cf000a0039000541b1000082cf008e
:10158000070039000541b1000982cf00040039008d
:101590000541b1000882cf00010039000541b100ca
:1015a00005425200120032000a003b0082817100a5
:1015b000610164008100d1000080d3008984d300e0
:1015c0000884d3008b05e8000442e800f7ff3a00e6
:1015d000070037000804440089844c0000004800dc
:1015e000818048008b05e9000442e900f9ff3a00d8
:1015f000030007004f05be004f04be0000000600b8
:1016000081002000618055000b003d000b00200090
:1016100061fe2f000100e1001d0034008281710095
:10162000610164008904d1000884d3000000e8004f
:10163000faff3a00710020006100640003007000ae
:10164000020060000900320061044400e0844c00a4
:101650000988a500050032008b05e8006808e10054
:1016600002003a008904d1000884d300f20f200060
:101670000258e10005003d00c75ddd00f907b2003a
:101680008980750008007800000006000bf827002c
:101690008b007800000005000004be00c4fe0700b7
:1016a0000003be000405be000200be00c0fe07002d
:1016b000844f7500000006000200be006450e10087
:1016c000050036006420e100020036000968a3002e
:1016d00001003a000800be000160a0004f0678003b
:1016e0004f05be004f04be0000000600f0ff2f00b3
:0816f000f1ff2700f9ff3700ac
:020000040000fa
:020000040001f9
:0457f400c0fc0000f5
:020000040000fa
:020000040001f9
:0457f8009ff8000016
:020000040000fa
:020000040001f9
:0457fc007f3e0000ec
:020000040000fa
:1000080040060000400600004006000040060000d0
:1000180040060000400600004006000040060000c0
:10002800400600004006000040060000980200005c
:10003800400600004006000040060000b80200002c
:10004800d8020000400600004006000040060000fc
:100058004006000040060000400600004006000080
:10006800400600004006000040060000ea4e00007e
:100078004006000040060000400600004006000060
:10008800400600004006000040060000f80200009c
:10009800180300004006000040060000400600006b
:1000a8004006000040060000400600004006000030
:1000b8004006000040060000400600004006000020
:1000c8004006000040060000400600004006000010
:1000d8004006000040060000400600004006000000
:1000e80040060000400600004006000040060000f0
:1000f80040060000400600004006000040060000e0
:1001080040060000400600004006000040060000cf
:1001180040060000400600004006000040060000bf
:1001280040060000400600004006000040060000af
:10013800400600004006000040060000400600009f
:10014800400600004006000040060000400600008f
:10015800400600004006000040060000400600007f
:10016800400600004006000040060000400600006f
:10017800400600004006000040060000400600005f
:10018800400600004006000040060000400600004f
:10019800400600004006000040060000400600003f
:1001a800400600004006000040060000400600002f
:1001b800400600004006000040060000400600001f
:1001c800400600004006000040060000400600000f
:1001d80040060000400600004006000040060000ff
:1001e80040060000400600004006000040060000ef
:0801f800400600004006000073
:020000040000fa
:1002080040060000400600004006000040060000ce
:1002180040060000400600004006000040060000be
:10022800400600004006000040060000980200005a
:10023800400600004006000040060000b80200002a
:10024800d8020000400600004006000040060000fa
:10025800400600004006000040060000400600007e
:10026800400600004006000040060000ea4e00007c
:10027800400600004006000040060000400600005e
:10028800400600004006000040060000f80200009a
:100298001803000040060000400600004006000069
:1002a800400600004006000040060000400600002e
:1002b800400600004006000040060000400600001e
:1002c800400600004006000040060000400600000e
:1002d80040060000400600004006000040060000fe
:1002e80040060000400600004006000040060000ee
:1002f80040060000400600004006000040060000de
:1003080040060000400600004006000040060000cd
:1003180040060000400600004006000040060000bd
:1003280040060000400600004006000040060000ad
:10033800400600004006000040060000400600009d
:10034800400600004006000040060000400600008d
:10035800400600004006000040060000400600007d
:10036800400600004006000040060000400600006d
:10037800400600004006000040060000400600005d
:10038800400600004006000040060000400600004d
:10039800400600004006000040060000400600003d
:1003a800400600004006000040060000400600002d
:1003b800400600004006000040060000400600001d
:1003c800400600004006000040060000400600000d
:1003d80040060000400600004006000040060000fd
:1003e80040060000400600004006000040060000ed
:0803f800400600004006000071
:020000040000fa
:1016f8000600fa00100798004147980052479800e2
:1017080020c0b300e21c07004e409000004f780054
:101718005e429000144798001e029000e10f5200ac
:1017280004003a0004c7b3000440780044e8b70056
:10173800090037001e029000e20f520004003a0030
:1017480064c7b3000440780044e8b70002003700db
:1017580094cfb3000d003700448420001442780071
:10176800220020008e007800044078008b1e0700bd
:1017780000027800e20f5200030032002afe070040
:10178800d4cfb300010037000042eb0004407800da
:101798000080fa00000006000600fa00000f78003a
:1017a800214798002207980020c0b300b81c070002
:1017b8001e027800e10f520004003a0004c7b3008b
:1017c8000440780044e8b700090037001e0278009a
:1017d800e20f520004003a0064c7b30004407800e6
:1017e80044e8b7000200370094cfb3000f00370079
:1017f80045842000954278000e83e80014002000fc
:10180800ae019000120020008600780005407800a4
:10181800851e070000027800e10f52000200320026
:10182800d4cfb300010037000042eb000440780039
:101838000080fa00000006000400fa001007980073
:10184800b2c0b300d1cfb3001e009000a8ff0700bc
:1018580002c4b3008040eb001e009000a4ff070004
:101868000041eb0011c0b3001e009000a0ff07006c
:101878000041eb0021c0b3001e0090009cff070050
:1018880082c0b30031c0b3001e00900098ff07006b
:1018980012c0b30041c0b3001e00900094ff0700bf
:1018a80002c1b30051c0b3001e00900090ff0700b2
:1018b80002c1b30061c0b3001e0090008cff070096
:1018c80002c1b30071c0b3001e00900088ff07007a
:1018d800e2c1b30081c0b3001e00900084ff07007e
:1018e8000041eb0091c0b3001e00900080ff07008c
:1018f80012c0b300a1c0b3001e0090007cff070017
:101908000041eb00b1c0b3001e00900078ff070053
:1019180012c0b300d1cfb3001e00900074ff0700bf
:101928000002eb00040f78000002eb00040f7800bf
:10193800070037001e027800044278000041eb00df
:10194800844078001e00900069ff07001e0fe80021
:101958001e027800f10f5200f6ff34002401200027
:10196800040f7800070037001e0278000442780050
:101978000041eb00844078001e0090005cff0700e7
:101988001e0fe800340220009e027800848f520067
:10199800f5ff340044022000040f780007003700e8
:1019a8001e0278000442780000c1eb0084407800f1
:1019b8001e0090004eff07001e0fe800340b2000a9
:1019c8009e027800848f5200f5ff34000080fa00f0
:1019d800000006000400fa00000f78002147980074
:1019e800324798003e419000ae4090001e007800bb
:1019f8003fff07000080fa00000006000600fa001a
:101a08001007980041479800524798004e429000ae
:101a18000482fb006123b9000082eb008082eb00a6
:101a28000602420087824a00f600200007002000d4
:101a3800860f5200878f5a00bb023e0004600100e7
:101a48000f0037000e0037000d0037000c0037007c
:101a58000b0037000a00370009003700080037007c
:101a68005c0137005b0137005a0137005901370024
:101a78005801370057013700560137005501370024
:101a88000e0178008040eb001e00900042ff070026
:101a98005e4290000482fb0061026200e00f520087
:101aa80002003a00f50f2000010037008002eb0029
:101ab8005e4290000482fb0061026200e00f520067
:101ac80002003a00f60f2000010037000003eb0087
:101ad8001e4278000482fb000402530004037800cd
:101ae80006f0a7000603ea004e4290000482fb00bd
:101af8000402e90017002000043add000402730024
:101b08000482520004f0a7000402ea0004427800ac
:101b1800044178008040eb001e009000f4fe0700ae
:101b28000e01780021c0b3001e0090001aff0700c4
:101b38005e4290000482fb00620262008482d1004f
:101b480014f02f0004aab90004027800f60f200050
:101b5800040343005e4290000482fb0062026200bc
:101b68008482d10014f02f0004aab900040278007e
:101b7800f50f2000848242001e4278000482fb0098
:101b8800048252008402780005f0a7008502ea006a
:101b98004e4290000482fb000402e9001700200076
:101ba800043add00048272000402530004f0a70026
:101bb8000402ea00044278000441780021c0b3001e
:101bc8001e009000cafe07000e01780041c0b30055
:101bd8001e009000f0fe07005e4290000482fb00a9
:101be80064026200c2a2de0014f02f0004aab90049
:101bf80004027800f60f2000040343005e429000c0
:101c08000482fb0064026200c2a2de0014f02f000e
:101c180004aab90004027800f50f2000848242006b
:101c28001e4278000482fb0004825200840278007d
:101c380005f0a7008502ea004e4290000482fb00ee
:101c48000402e90017002000043add000482720053
:101c58000402530004f0a7000402ea0004427800da
:101c68000441780041c0b3001e009000a0fe0700a8
:101c78000e01780061c0b3001e009000c6fe070088
:101c88005e4290000482fb0068026200c3a2de008c
:101c980014f02f0004aab90004027800f60f2000ff
:101ca800040343005e4290000482fb006802620065
:101cb800c3a2de0014f02f0004aab90004027800c1
:101cc800f50f2000848242001e4278000482fb0047
:101cd800048252008402780005f0a7008502ea0019
:101ce8004e4290000482fb000402e9001700200025
:101cf800043add00048272000402530004f0a700d5
:101d08000402ea00044278000441780061c0b3008c
:101d18001e00900076fe07000e01780081c0b30017
:101d28001e0090009cfe07005e4290000482fb00ab
:101d380070026200c4a2de0014f02f0004aab900e9
:101d480004027800f60f2000040343005e4290006e
:101d58000482fb0070026200c4a2de0014f02f00af
:101d680004aab90004027800f50f2000848242001a
:101d78001e4278000482fb0004825200840278002c
:101d880005f0a7008502ea004e4290000482fb009d
:101d98000402e90017002000043add000482720002
:101da8000402530004f0a7000402ea000442780089
:101db8000441780081c0b3001e0090004cfe07006b
:101dc8000e017800a1c0b3001e00900072fe07004b
:101dd8005e4290008482fb000402200004826200bc
:101de800c5a2de0014f02f0004aab900040278008e
:101df800f60f2000040343005e4290008482fb003b
:101e08000402200004826200c5a2de0014f02f0044
:101e180004aab90004027800f50f20008482420069
:101e28001e4278000482fb0004825200840278007b
:101e380005f0a7008502ea004e4290000482fb00ec
:101e48000402e90017002000043add000482720051
:101e58000402530004f0a7000402ea0004427800d8
:101e680004417800a1c0b3001e00900020fe0700c6
:101e78000e017800c1c0b3001e00900046fe0700a6
:101e88005e4290008482fb00040420000482620009
:101e9800c6a2de0014f02f0004aab90004027800dc
:101ea800f60f2000040343005e4290008482fb008a
:101eb8000404200004826200c6a2de0014f02f0091
:101ec80004aab90004027800f50f200084824200b9
:101ed8001e4278000482fb000482520084027800cb
:101ee80005f0a7008502ea004e4290000482fb003c
:101ef8000402e90017002000043add0004827200a1
:101f08000402530004f0a7000402ea000442780027
:101f180004417800c1c0b3001e009000f4fd070022
:101f28000e017800e1c0b3001e0090001afe070001
:101f38005e4290000482fb004722de0004427800e3
:101f48008482fb0014f02f0004aab9000402780070
:101f5800f60f2000040343005e4290000482fb0059
:101f68004722de00044278008482fb0014f02f0030
:101f780004aab90004027800f50f20008482420008
:101f88001e4278000482fb0004825200840278001a
:101f980005f0a7008502ea004e4290000482fb008b
:101fa8000402e90017002000043add0004827200f0
:101fb8000402530004f0a7000402ea000442780077
:101fc80004417800e1c0b3001e009000c8fd07007e
:101fd800570137000e01780011c0b3001e009000b1
:101fe800edfd07005e4290000482fb006102620082
:101ff800e00f520002003a00f50f20000100370000
:102008008002eb005e4290000482fb0061026200e5
:10201800e00f520002003a00f60f200001003700de
:102028000003eb001e4278000482fb000402530008
:102038000403780006f0a7000603ea004e42900069
:102048000482fb006902520017002000043add00f8
:10205800040273000482520004f0a7000402ea009c
:10206800044278000441780011c0b3001e009000bb
:102078009ffd07000e01780031c0b3001e009000dc
:10208800c5fd07005e4290000482fb006202620008
:102098008482d10014f02f0004aab9000402780049
:1020a800f60f2000040343005e4290000482fb0008
:1020b800620262008482d10014f02f0004aab900e1
:1020c80004027800f50f2000848242001e42780046
:1020d8000482fb00048252008402780005f0a70005
:1020e8008502ea004e4290000482fb006902520019
:1020f80017002000043add00048272000402530035
:1021080004f0a7000402ea000442780004417800c1
:1021180031c0b3001e00900075fd07000e01780065
:1021280051c0b3001e0090009bfd07005e42900066
:102138000482fb0064026200c2a2de0014f02f00d9
:1021480004aab90004027800f60f20000403430033
:102158005e4290000482fb0064026200c2a2de00bc
:1021680014f02f0004aab90004027800f50f20002b
:10217800848242001e4278000482fb0004825200de
:102188008402780005f0a7008502ea004e4290001c
:102198000482fb006902520017002000043add00a7
:1021a800048272000402530004f0a7000402ea004b
:1021b800044278000441780051c0b3001e0090002a
:1021c8004bfd07000e01780071c0b3001e0090009f
:1021d80071fd07005e4290000482fb006802620005
:1021e800c3a2de0014f02f0004aab900040278008c
:1021f800f60f2000040343005e4290000482fb00b7
:1022080068026200c3a2de0014f02f0004aab9001d
:1022180004027800f50f2000848242001e427800f4
:102228000482fb00048252008402780005f0a700b3
:102238008502ea004e4290000482fb0069025200c7
:1022480017002000043add000482720004025300e3
:1022580004f0a7000402ea00044278000441780070
:1022680071c0b3001e00900021fd07000e01780028
:1022780091c0b3001e00900047fd07005e42900029
:102288000482fb0070026200c4a2de0014f02f007a
:1022980004aab90004027800f60f200004034300e2
:1022a8005e4290000482fb0070026200c4a2de005d
:1022b80014f02f0004aab90004027800f50f2000da
:1022c800848242001e4278000482fb00048252008d
:1022d8008402780005f0a7008502ea004e429000cb
:1022e8000482fb006902520017002000043add0056
:1022f800048272000402530004f0a7000402ea00fa
:10230800044278000441780091c0b3001e00900098
:10231800f7fc07000e017800b1c0b3001e00900062
:102328001dfd07005e4290008482fb00040220002d
:1023380004826200c5a2de0014f02f0004aab900ce
:1023480004027800f60f2000040343005e42900068
:102358008482fb000402200004826200c5a2de0021
:1023680014f02f0004aab90004027800f50f200029
:10237800848242001e4278000482fb0004825200dc
:102388008402780005f0a7008502ea004e4290001a
:102398000482fb006902520017002000043add00a5
:1023a800048272000402530004f0a7000402ea0049
:1023b8000442780004417800b1c0b3001e009000c8
:1023c800cbfc07000e017800d1c0b3001e009000be
:1023d800f1fc07005e4290008482fb0004042000a8
:1023e80004826200c6a2de0014f02f0004aab9001d
:1023f80004027800f60f2000040343005e429000b8
:102408008482fb000404200004826200c6a2de006d
:1024180014f02f0004aab90004027800f50f200078
:10242800848242001e4278000482fb00048252002b
:102438008402780005f0a7008502ea004e42900069
:102448000482fb006902520017002000043add00f4
:10245800048272000402530004f0a7000402ea0098
:102468000442780004417800d1c0b3001e009000f7
:102478009ffc07000e017800f1c0b3001e00900019
:10248800c5fc07005e4290000482fb004722de0084
:10249800044278008482fb0014f02f0004aab900db
:1024a80004027800f60f2000040343005e42900007
:1024b8000482fb004722de00044278008482fb008d
:1024c80014f02f0004aab90004027800f50f2000c8
:1024d800848242001e4278000482fb00048252007b
:1024e8008402780005f0a7008502ea004e429000b9
:1024f8000482fb006902520017002000043add0044
:10250800048272000402530004f0a7000402ea00e7
:102518000442780004417800f1c0b3001e00900026
:1025280073fc07000200370094ff2f0001003700fa
:102538000002eb00040078000080fa0000000600aa
:102548000400fa00000f780011079800b2c0b30029
:10255800d1cfb3001e0078001efd07001e029000b8
:10256800044278000441780051c0b3001e0078008e
:1025780018fd07001e02900004427800044178000c
:1025880061c0b3001e00780012fd070012c0b3003e
:10259800d1cfb3001e0078000efd07000080fa00be
:1025a800000006000200fa000002eb00040f7800a9
:1025b8000002eb00040f78000d0037001e027800bf
:1025c800044278000041eb008440780010002000ad
:1025d80047fc07001e027800044278000041eb0027
:1025e800844078002000200041fc07001e0fe8000e
:1025f8001e027800f10f5200f0ff34000080fa004c
:10260800000006000200fa000002eb00040f780048
:102618000002eb00040f78000d0037001e0278005e
:102628000442780000c1eb008440780010002000cc
:102638002ffc07001e0278000442780000c1eb005e
:10264800844078002000200029fc07001e0fe800c5
:102658001e027800f10f5200f0ff34000080fa00eb
:10266800000006000600fa0040479800514798000d
:102678005e4290008482fb00a40020001100090043
:102688008482d80001027800044f78005e429000ee
:102698008482fb005e4290000483fb00a4002000bb
:1026a800110009000483d800010278000442780070
:1026b8000482fb0084825200a4002000110009005b
:1026c8008402d80000027800144798004e42900017
:1026d8008482fb00a4002000110009008482d80035
:1026e80001027800244798004e4290008482fb0043
:1026f8004e4290000483fb00a40020001100090052
:102708000483d80001027800044278000482fb00a8
:1027180084825200a4002000110009008402d8001d
:1027280000027800344798009e4278000582fb003a
:10273800cfa2de009600200007002000860f52007e
:10274800878f5a008d003e000460010009003700a1
:1027580015003700210037002d00370039003700f9
:1027680045003700510037005d0037006900370029
:1027780075003700f2c7b30051c0b3002000200035
:102788009efc070012c4b30061c0b3002000200003
:102798009afc0700f2c7b30071c0b3002000200004
:1027a80096fc07007500370042c0b30051c0b30063
:1027b8002000200091fc070022c0b30061c0b300d4
:1027c800200020008dfc0700f2c7b30071c0b300e1
:1027d8002000200089fc07006800370092c7b3007a
:1027e80051c0b3002000200084fc070092c4b3004d
:1027f80061c0b3002000200080fc0700f2c4b300d1
:1028080071c0b300200020007cfc07005b0037008b
:1028180092c4b30051c0b3002000200077fc070029
:1028280092c4b30061c0b3002000200073fc07000d
:10283800f2c7b30071c0b300200020006ffc07008e
:102848004e003700f2c0b30051c0b3002000200092
:102858006afc070082c0b30061c0b30020002000fa
:1028680066fc0700f2c7b30071c0b3002000200067
:1028780062fc070041003700f2c4b30051c0b30046
:10288800200020005dfc070092c4b30061c0b300c3
:102898002000200059fc070092c7b30071c0b300a4
:1028a8002000200055fc070034003700f2c7b300b1
:1028b80051c0b3002000200050fc070092c4b300b0
:1028c80061c0b300200020004cfc070092c7b30091
:1028d80071c0b3002000200048fc07002700370023
:1028e80012c0b30051c0b3002000200043fc070011
:1028f80012c0b30061c0b300200020003ffc0700f5
:10290800f2c7b30071c0b300200020003bfc0700f1
:102918001a003700f2c7b30051c0b30020002000ee
:1029280036fc070092c4b30061c0b3002000200049
:1029380032fc0700f2c7b30071c0b30020002000ca
:102948002efc07000d003700f2c4b30051c0b300dd
:102958002000200029fc070092c4b30061c0b30026
:102968002000200025fc0700f2c7b30071c0b300a7
:102978002000200021fc0700000000001e429000fb
:102988000482fb00cfa2de00960020000700200092
:10299800860f5200878f5a008d003e0004600100a8
:1029a8000900370015003700210037002d003700d7
:1029b8003900370045003700510037005d00370007
:1029c8006900370075003700f2c7b30011c0b300c3
:1029d8002000200009fc070012c4b30021c0b30086
:1029e8002000200005fc0700f2c7b30031c0b30087
:1029f8002000200001fc07007500370042c0b3002a
:102a080011c0b30020002000fcfb070022c0b30067
:102a180021c0b30020002000f8fb0700f2c7b30074
:102a280031c0b30020002000f4fb07006800370025
:102a380092c7b30011c0b30020002000effb0700cd
:102a480092c4b30021c0b30020002000ebfb0700b4
:102a5800f2c4b30031c0b30020002000e7fb070038
:102a68005b00370092c4b30011c0b30020002000ff
:102a7800e2fb070092c4b30021c0b300200020008d
:102a8800defb0700f2c7b30031c0b300200020000e
:102a9800dafb07004e003700f2c0b30011c0b300e4
:102aa80020002000d5fb070082c0b30021c0b3007e
:102ab80020002000d1fb0700f2c7b30031c0b300eb
:102ac80020002000cdfb070041003700f2c4b3000e
:102ad80011c0b30020002000c8fb070092c4b30057
:102ae80021c0b30020002000c4fb070092c7b30038
:102af80031c0b30020002000c0fb070034003700bd
:102b0800f2c7b30011c0b30020002000bbfb0700d0
:102b180092c4b30021c0b30020002000b7fb070017
:102b280092c7b30031c0b30020002000b3fb0700f8
:102b38002700370012c0b30011c0b30020002000e6
:102b4800aefb070012c0b30021c0b3002000200074
:102b5800aafb0700f2c7b30031c0b3002000200071
:102b6800a6fb07001a003700f2c7b30011c0b30074
:102b780020002000a1fb070092c4b30021c0b300cd
:102b8800200020009dfb0700f2c7b30031c0b3004e
:102b98002000200099fb07000d003700f2c4b300a5
:102ba80011c0b3002000200094fb070092c4b300ba
:102bb80021c0b3002000200090fb0700f2c7b3003b
:102bc80031c0b300200020008cfb0700000000008b
:102bd8002e4290000482fb00cfa2de009600200067
:102be80007002000860f5200878f5a008d003e0094
:102bf8000460010009003700150037002100370084
:102c08002d003700390037004500370051003700e4
:102c18005d0037006900370075003700f2c7b30060
:102c280051c0b3001000200074fb070012c4b300a9
:102c380061c0b3001000200070fb0700f2c7b300aa
:102c480071c0b300100020006cfb0700750037004e
:102c580042c0b30051c0b3001000200067fb07005a
:102c680022c0b30061c0b3001000200063fb07005e
:102c7800f2c7b30071c0b300100020005ffb07006b
:102c88006800370092c7b30051c0b300100020009d
:102c98005afb070092c4b30061c0b30010002000c3
:102ca80056fb0700f2c4b30071c0b3001000200047
:102cb80052fb07005b00370092c4b30051c0b30059
:102cc800100020004dfb070092c4b30061c0b300a0
:102cd8001000200049fb0700f2c7b30071c0b30021
:102ce8001000200045fb07004e003700f2c0b3007b
:102cf80051c0b3001000200040fb070082c0b300a1
:102d080061c0b300100020003cfb0700f2c7b3000d
:102d180071c0b3001000200038fb070041003700e5
:102d2800f2c4b30051c0b3001000200033fb070009
:102d380092c4b30061c0b300100020002ffb07004d
:102d480092c7b30071c0b300100020002bfb07002e
:102d580034003700f2c7b30051c0b30010002000a0
:102d680026fb070092c4b30061c0b3001000200026
:102d780022fb070092c7b30071c0b3001000200007
:102d88001efb07002700370012c0b30051c0b30074
:102d98001000200019fb070012c0b30061c0b30087
:102da8001000200015fb0700f2c7b30071c0b30084
:102db8001000200011fb07001a003700f2c7b3000b
:102dc80051c0b300100020000cfb070092c4b300f0
:102dd80061c0b3001000200008fb0700f2c7b30071
:102de80071c0b3001000200004fb07000d0037007d
:102df800f2c4b30051c0b30010002000fffa07006e
:102e080092c4b30061c0b30010002000fbfa0700b1
:102e1800f2c7b30071c0b30010002000f7fa070032
:102e2800000000003e4290000482fb00cfa2de00ba
:102e38009600200007002000860f5200878f5a0056
:102e48008d003e00046001000900370015003700be
:102e5800210037002d0037003900370045003700c2
:102e6800510037005d0037006900370075003700f2
:102e7800f2c7b30011c0b30010002000dffa07004a
:102e880012c4b30021c0b30010002000dbfa070011
:102e9800f2c7b30031c0b30010002000d7fa070012
:102ea8007500370042c0b30011c0b3001000200005
:102eb800d2fa070022c0b30021c0b30010002000de
:102ec800cefa0700f2c7b30031c0b30010002000eb
:102ed800cafa07006800370092c7b30011c0b300f0
:102ee80010002000c5fa070092c4b30021c0b30047
:102ef80010002000c1fa0700f2c4b30031c0b300cb
:102f080010002000bdfa07005b00370092c4b30030
:102f180011c0b30010002000b8fa070092c4b30033
:102f280021c0b30010002000b4fa0700f2c7b300b4
:102f380031c0b30010002000b0fa07004e0037007f
:102f4800f2c0b30011c0b30010002000abfa0700b4
:102f580082c0b30021c0b30010002000a7fa070008
:102f6800f2c7b30031c0b30010002000a3fa070075
:102f780041003700f2c4b30011c0b30010002000b4
:102f88009efa070092c4b30021c0b30010002000cd
:102f98009afa070092c7b30031c0b30010002000ae
:102fa80096fa070034003700f2c7b30011c0b30027
:102fb8001000200091fa070092c4b30021c0b300aa
:102fc800100020008dfa070092c7b30031c0b3008b
:102fd8001000200089fa07002700370012c0b3004c
:102fe80011c0b3001000200084fa070012c0b3001b
:102ff80021c0b3001000200080fa0700f2c7b30018
:1030080031c0b300100020007cfa07001a00370016
:10301800f2c7b30011c0b3001000200077fa070010
:1030280092c4b30021c0b3001000200073fa070057
:10303800f2c7b30031c0b300100020006ffa0700d8
:103048000d003700f2c4b30011c0b3001000200017
:103058006afa070092c4b30021c0b3001000200030
:1030680066fa0700f2c7b30031c0b30010002000b1
:1030780062fa0700000000000080fa000000060065
:103088000600fa0040479800514798005e429000b9
:103098008482fb00a4002000110009008482d8006b
:1030a80001027800044f78005e4290008482fb00a1
:1030b8005e4290000483fb00a40020001100090078
:1030c8000483d80001027800044278000482fb00df
:1030d80084825200a4002000110009008402d80054
:1030e80000027800144798004e4290008482fb004a
:1030f800a4002000110009008482d8000102780091
:10310800244798004e4290008482fb004e42900073
:103118000483fb00a4002000110009000483d800e8
:1031280001027800044278000482fb008482520085
:10313800a4002000110009008402d80000027800d1
:10314800344798000041eb0071c0b3001000200024
:103158002afa07000041eb0081c0b30010002000ec
:1031680026fa07000041eb00f1c0b3001000200070
:1031780022fa07000041eb0021c0b3002000200024
:103188001efa07000041eb0091c0b30020002000a8
:103198001afa07000041eb00a1c0b300200020008c
:1031a80016fa07009e4278000582fb00cfa2de00d7
:1031b8009600200007002000860f5200878f5a00d3
:1031c80005013e00046001000900370021003700b6
:1031d8003900370051003700690037008100370097
:1031e80099003700b1003700c9003700e100370007
:1031f80000c1eb00b1c0b30020002000fff90700b8
:1032080000c1eb00c1c0b30020002000fbf907009b
:1032180032ccb300d1c0b30020002000f7f907007a
:1032280032ccb300e1c0b30020002000f3f907005e
:1032380000c1eb00f1c0b30020002000eff9070047
:1032480000c1eb0001c1b30020002000ebf907002a
:10325800e10037000041eb00b1c0b30020002000be
:10326800e6f907000041eb00c1c0b30020002000d0
:10327800e2f907000041eb00d1c0b30020002000b4
:10328800def907000041eb00e1c0b3002000200098
:10329800daf9070000c1eb00f1c0b30020002000fc
:1032a800d6f9070000c1eb0001c1b30020002000df
:1032b800d2f90700c8003700b2cfb300b1c0b300dd
:1032c80020002000cdf90700b2cfb300c1c0b30081
:1032d80020002000c9f90700b2cdb300d1c0b30067
:1032e80020002000c5f90700b2cdb300e1c0b3004b
:1032f80020002000c1f90700f2cdb300f1c0b300ef
:1033080020002000bdf90700f2cdb30001c1b300d1
:1033180020002000b9f90700af003700b2cdb30094
:10332800b1c0b30020002000b4f90700b2cdb3004b
:10333800c1c0b30020002000b0f90700b2cdb3002f
:10334800d1c0b30020002000acf90700b2cdb30013
:10335800e1c0b30020002000a8f9070000c1eb007d
:10336800f1c0b30020002000a4f9070000c1eb0061
:1033780001c1b30020002000a0f907009600370023
:10338800f2c1b300b1c0b300200020009bf90700d0
:10339800f2c1b300c1c0b3002000200097f90700b4
:1033a80082c1b300d1c0b3002000200093f9070008
:1033b80082c1b300e1c0b300200020008ff90700ec
:1033c80000c1eb00f1c0b300200020008bf907001a
:1033d80000c1eb0001c1b3002000200087f90700fd
:1033e8007d003700f2cdb300b1c0b300200020004b
:1033f80082f90700f2cdb300c1c0b300200020005d
:103408007ef90700b2cdb300d1c0b3002000200080
:103418007af90700b2cdb300e1c0b3002000200064
:1034280076f90700b2cfb300f1c0b3002000200046
:1034380072f90700b2cfb30001c1b3002000200029
:103448006ef907006400370000c1eb00b1c0b3009b
:103458002000200069f9070000c1eb00c1c0b300db
:103468002000200065f90700b2cdb300d1c0b30039
:103478002000200061f90700b2cdb300e1c0b3001d
:10348800200020005df90700b2cfb300f1c0b300ff
:103498002000200059f90700b2cfb30001c1b300e2
:1034a8002000200055f907004b00370032c0b30058
:1034b800b1c0b3002000200050f9070032c0b300ab
:1034c800c1c0b300200020004cf9070032c0b3008f
:1034d800d1c0b3002000200048f9070032c0b30073
:1034e800e1c0b3002000200044f9070000c1eb0050
:1034f800f1c0b3002000200040f9070000c1eb0034
:1035080001c1b300200020003cf907003200370059
:1035180000c1eb00b1c0b3002000200037f907005c
:1035280000c1eb00c1c0b3002000200033f9070040
:10353800b2cdb300d1c0b300200020002ff907009e
:10354800b2cdb300e1c0b300200020002bf9070082
:1035580000c1eb00f1c0b3002000200027f90700ec
:1035680000c1eb0001c1b3002000200023f90700cf
:1035780019003700f2cdb300b1c0b300200020001d
:103588001ef90700f2cdb300c1c0b300200020002f
:103598001af90700b2cdb300d1c0b3002000200053
:1035a80016f90700b2cdb300e1c0b3002000200037
:1035b80012f9070000c1eb00f1c0b30020002000a1
:1035c8000ef9070000c1eb0001c1b3002000200084
:1035d8000af90700000000001e4290000482fb0068
:1035e800cfa2de005600200007002000860f520000
:1035f800878f5a009d003e000460010005003700d7
:103608001d003700350037004d00370065003700d2
:103618007d00370000c1eb0031c0b300200020005e
:10362800f6f8070000c1eb0041c0b30020002000fd
:10363800f2f8070032ccb30051c0b30020002000dc
:10364800eef8070032ccb30061c0b30020002000c0
:10365800eaf8070000c1eb0071c0b30020002000a9
:10366800e6f8070000c1eb0081c0b300200020008d
:10367800e2f807007d0037000041eb0031c0b300dd
:1036880020002000ddf807000041eb0041c0b30036
:1036980020002000d9f807000041eb0051c0b3001a
:1036a80020002000d5f807000041eb0061c0b300fe
:1036b80020002000d1f8070000c1eb0071c0b30062
:1036c80020002000cdf8070000c1eb0081c0b30046
:1036d80020002000c9f8070064003700b2cfb3000b
:1036e80031c0b30020002000c4f80700b2cfb300f7
:1036f80041c0b30020002000c0f80700b2cdb300dd
:1037080051c0b30020002000bcf80700b2cdb300c0
:1037180061c0b30020002000b8f80700f2cdb30064
:1037280071c0b30020002000b4f80700f2cdb30048
:1037380081c0b30020002000b0f807004b0037001c
:10374800b2cdb30031c0b30020002000abf80700b1
:10375800b2cdb30041c0b30020002000a7f8070095
:10376800b2cdb30051c0b30020002000a3f8070079
:10377800b2cdb30061c0b300200020009ff807005d
:1037880000c1eb0071c0b300200020009bf80700c7
:1037980000c1eb0081c0b3002000200097f80700ab
:1037a80032003700f2c1b30031c0b300200020005e
:1037b80092f80700f2c1b30041c0b3002000200016
:1037c8008ef8070082c1b30051c0b300200020006a
:1037d8008af8070082c1b30061c0b300200020004e
:1037e80086f8070000c1eb0071c0b300200020007c
:1037f80082f8070000c1eb0081c0b3002000200060
:103808007ef8070019003700f2cdb30031c0b300cd
:103818002000200079f80700f2cdb30041c0b300c2
:103828002000200075f80700b2cdb30051c0b300e6
:103838002000200071f80700b2cdb30061c0b300ca
:10384800200020006df80700b2cfb30071c0b300ac
:103858002000200069f80700b2cfb30081c0b30090
:103868002000200065f80700000000002e429000ac
:103878000482fb00cfa2de00960020000700200093
:10388800860f5200878f5a0005013e000460010030
:103898000900370021003700390037005100370090
:1038a800690037008100370099003700b100370000
:1038b800c9003700e100370000c1eb0091c0b30038
:1038c800100020004df8070000c1eb00a1c0b300b4
:1038d8001000200049f8070032ccb300b1c0b30093
:1038e8001000200045f8070032ccb300c1c0b30077
:1038f8001000200041f8070000c1eb00d1c0b30060
:10390800100020003df8070000c1eb00e1c0b30043
:103918001000200039f80700e10037000041eb00f3
:1039280091c0b3001000200034f807000041eb00fc
:10393800a1c0b3001000200030f807000041eb00e0
:10394800b1c0b300100020002cf807000041eb00c4
:10395800c1c0b3001000200028f8070000c1eb0028
:10396800d1c0b3001000200024f8070000c1eb000c
:10397800e1c0b3001000200020f80700c80037009d
:10398800b2cfb30091c0b300100020001bf80700ad
:10399800b2cfb300a1c0b3001000200017f8070091
:1039a800b2cdb300b1c0b3001000200013f8070077
:1039b800b2cdb300c1c0b300100020000ff807005b
:1039c800f2cdb300d1c0b300100020000bf80700ff
:1039d800f2cdb300e1c0b3001000200007f80700e3
:1039e800af003700b2cdb30091c0b3001000200083
:1039f80002f80700b2cdb300a1c0b3001000200048
:103a0800fef70700b2cdb300b1c0b300100020002c
:103a1800faf70700b2cdb300c1c0b3001000200010
:103a2800f6f7070000c1eb00d1c0b300100020007a
:103a3800f2f7070000c1eb00e1c0b300100020005e
:103a4800eef7070096003700f2c1b30091c0b3004b
:103a580010002000e9f70700f2c1b300a1c0b300cd
:103a680010002000e5f7070082c1b300b1c0b30021
:103a780010002000e1f7070082c1b300c1c0b30005
:103a880010002000ddf7070000c1eb00d1c0b30033
:103a980010002000d9f7070000c1eb00e1c0b30017
:103aa80010002000d5f707007d003700f2cdb300e5
:103ab80091c0b30010002000d0f70700f2cdb3008a
:103ac800a1c0b30010002000ccf70700b2cdb300ae
:103ad800b1c0b30010002000c8f70700b2cdb30092
:103ae800c1c0b30010002000c4f70700b2cfb30074
:103af800d1c0b30010002000c0f70700b2cfb30058
:103b0800e1c0b30010002000bcf7070064003700d4
:103b180000c1eb0091c0b30010002000b7f7070008
:103b280000c1eb00a1c0b30010002000b3f70700ec
:103b3800b2cdb300b1c0b30010002000aff707004a
:103b4800b2cdb300c1c0b30010002000abf707002e
:103b5800b2cfb300d1c0b30010002000a7f7070010
:103b6800b2cfb300e1c0b30010002000a3f70700f4
:103b78004b00370032c0b30091c0b30010002000e2
:103b88009ef7070032c0b300a1c0b30010002000a8
:103b98009af7070032c0b300b1c0b300100020008c
:103ba80096f7070032c0b300c1c0b3001000200070
:103bb80092f7070000c1eb00d1c0b300100020004d
:103bc8008ef7070000c1eb00e1c0b3001000200031
:103bd8008af707003200370000c1eb0091c0b3003c
:103be8001000200085f7070000c1eb00a1c0b3005a
:103bf8001000200081f70700b2cdb300b1c0b300b8
:103c0800100020007df70700b2cdb300c1c0b3009b
:103c18001000200079f7070000c1eb00d1c0b30005
:103c28001000200075f7070000c1eb00e1c0b300e9
:103c38001000200071f7070019003700f2cdb3001b
:103c480091c0b300100020006cf70700f2cdb3005c
:103c5800a1c0b3001000200068f70700b2cdb30080
:103c6800b1c0b3001000200064f70700b2cdb30064
:103c7800c1c0b3001000200060f7070000c1eb00ce
:103c8800d1c0b300100020005cf7070000c1eb00b2
:103c9800e1c0b3001000200058f707000000000042
:103ca8003e4290000482fb00cfa2de0036002000d6
:103cb80007002000860f5200878f5a0069003e00d7
:103cc80004600100030037001b0037003300370091
:103cd8004b00370000c1eb0011c0b30010002000fa
:103ce80046f7070000c1eb0021c0b3001000200018
:103cf80042f7070032ccb30031c0b30010002000f7
:103d08003ef7070032ccb30041c0b30010002000da
:103d18003af7070000c1eb0051c0b30010002000c3
:103d280036f7070000c1eb0061c0b30010002000a7
:103d380032f70700640037000041eb0011c0b30000
:103d4800100020002df707000041eb0021c0b30050
:103d58001000200029f707000041eb0031c0b30034
:103d68001000200025f707000041eb0041c0b30018
:103d78001000200021f7070000c1eb0051c0b3007c
:103d8800100020001df7070000c1eb0061c0b30060
:103d98001000200019f707004b003700b2cfb3001e
:103da80011c0b3001000200014f70700b2cfb30011
:103db80021c0b3001000200010f70700b2cdb300f7
:103dc80031c0b300100020000cf70700b2cdb300db
:103dd80041c0b3001000200008f70700f2cdb3007f
:103de80051c0b3001000200004f70700f2cdb30063
:103df80061c0b3001000200000f707003200370050
:103e0800b2cdb30011c0b30010002000fbf60700cc
:103e1800b2cdb30021c0b30010002000f7f60700b0
:103e2800b2cdb30031c0b30010002000f3f6070094
:103e3800b2cdb30041c0b30010002000eff6070078
:103e480000c1eb0051c0b30010002000ebf60700e2
:103e580000c1eb0061c0b30010002000e7f60700c6
:103e6800190037000041eb0011c0b300100020001a
:103e7800e2f607000041eb0021c0b300100020006b
:103e8800def607000041eb0031c0b300100020004f
:103e9800daf607000041eb0041c0b3001000200033
:103ea800d6f607000041eb0051c0b3001000200017
:103eb800d2f607000041eb0061c0b30010002000fb
:103ec800cef60700000000000080fa00000006009f
:103ed8000600fa00404798004e4290008482fb009a
:103ee800a4002000110009008482d8000102780093
:103ef800244798004e4290008482fb004e42900076
:103f08000483fb00a4002000110009000483d800ea
:103f180001027800044278000482fb008482520087
:103f2800a4002000110009008402d80000027800d3
:103f38003447980014002000040f78000700370069
:103f48001e027800044278000041eb0084407800ab
:103f580010002000a9f607001e0fe8001e027800d6
:103f6800ef0f5200f6ff34000041eb0021c0b30010
:103f780020002000a1f607000041eb0091c0b3002b
:103f8800200020009df607000041eb00a1c0b3000f
:103f98002000200099f607002e4290000482fb00c2
:103fa800cfa2de009600200007002000860f5200f6
:103fb800878f5a0005013e000460010009003700a0
:103fc80021003700390037005100370069003700f9
:103fd8008100370099003700b1003700c900370069
:103fe800e100370000c1eb00b1c0b30020002000a1
:103ff80082f6070000c1eb00c1c0b300200020001a
:104008007ef6070032ccb300d1c0b30020002000f8
:104018007af6070032ccb300e1c0b30020002000dc
:1040280076f6070000c1eb00f1c0b30020002000c5
:1040380072f6070000c1eb0001c1b30020002000a8
:104048006ef60700e10037000041eb00b1c0b30095
:104058002000200069f607000041eb00c1c0b30052
:104068002000200065f607000041eb00d1c0b30036
:104078002000200061f607000041eb00e1c0b3001a
:10408800200020005df6070000c1eb00f1c0b3007e
:104098002000200059f6070000c1eb0001c1b30061
:1040a8002000200055f60700c8003700b2cfb30043
:1040b800b1c0b3002000200050f60700b2cfb30013
:1040c800c1c0b300200020004cf60700b2cdb300f9
:1040d800d1c0b3002000200048f60700b2cdb300dd
:1040e800e1c0b3002000200044f60700f2cdb30081
:1040f800f1c0b3002000200040f60700f2cdb30065
:1041080001c1b300200020003cf60700af003700d3
:10411800b2cdb300b1c0b3002000200037f60700cd
:10412800b2cdb300c1c0b3002000200033f60700b1
:10413800b2cdb300d1c0b300200020002ff6070095
:10414800b2cdb300e1c0b300200020002bf6070079
:1041580000c1eb00f1c0b3002000200027f60700e3
:1041680000c1eb0001c1b3002000200023f60700c6
:1041780096003700f2c1b300b1c0b30020002000a0
:104188001ef60700f2c1b300c1c0b3002000200032
:104198001af6070082c1b300d1c0b3002000200086
:1041a80016f6070082c1b300e1c0b300200020006a
:1041b80012f6070000c1eb00f1c0b3002000200098
:1041c8000ef6070000c1eb0001c1b300200020007b
:1041d8000af607007d003700f2cdb300b1c0b30086
:1041e8002000200005f60700f2cdb300c1c0b300df
:1041f8002000200001f60700b2cdb300d1c0b30003
:1042080020002000fdf50700b2cdb300e1c0b300e7
:1042180020002000f9f50700b2cfb300f1c0b300c9
:1042280020002000f5f50700b2cfb30001c1b300ac
:1042380020002000f1f507006400370000c1eb0002
:10424800b1c0b30020002000ecf5070000c1eb006e
:10425800c1c0b30020002000e8f50700b2cdb300cc
:10426800d1c0b30020002000e4f50700b2cdb300b0
:10427800e1c0b30020002000e0f50700b2cfb30092
:10428800f1c0b30020002000dcf50700b2cfb30076
:1042980001c1b30020002000d8f507004b0037000b
:1042a80032c0b300b1c0b30020002000d3f507002e
:1042b80032c0b300c1c0b30020002000cff5070012
:1042c80032c0b300d1c0b30020002000cbf50700f6
:1042d80032c0b300e1c0b30020002000c7f50700da
:1042e80000c1eb00f1c0b30020002000c3f50700b7
:1042f80000c1eb0001c1b30020002000bff507009a
:104308003200370000c1eb00b1c0b300200020002c
:10431800baf5070000c1eb00c1c0b30020002000bf
:10432800b6f50700b2cdb300d1c0b300200020001d
:10433800b2f50700b2cdb300e1c0b3002000200001
:10434800aef5070000c1eb00f1c0b300200020006b
:10435800aaf5070000c1eb0001c1b300200020004e
:10436800a6f5070019003700f2cdb300b1c0b300bd
:1043780020002000a1f50700f2cdb300c1c0b300b2
:10438800200020009df50700b2cdb300d1c0b300d6
:104398002000200099f50700b2cdb300e1c0b300ba
:1043a8002000200095f5070000c1eb00f1c0b30024
:1043b8002000200091f5070000c1eb0001c1b30007
:1043c800200020008df50700000000003e4290000c
:1043d8000482fb00cfa2de00560020000700200068
:1043e800860f5200878f5a009d003e00046001002e
:1043f800050037001d003700350037004d00370035
:10440800650037007d00370000c1eb0031c0b30004
:104418002000200079f5070000c1eb0041c0b3007f
:104428002000200075f5070032ccb30051c0b3005e
:104438002000200071f5070032ccb30061c0b30042
:10444800200020006df5070000c1eb0071c0b3002b
:104458002000200069f5070000c1eb0081c0b3000f
:104468002000200065f507007d0037000041eb00c3
:1044780031c0b3002000200060f507000041eb00c8
:1044880041c0b300200020005cf507000041eb00ac
:1044980051c0b3002000200058f507000041eb0090
:1044a80061c0b3002000200054f5070000c1eb00f4
:1044b80071c0b3002000200050f5070000c1eb00d8
:1044c80081c0b300200020004cf5070064003700cd
:1044d800b2cfb30031c0b3002000200047f5070079
:1044e800b2cfb30041c0b3002000200043f507005d
:1044f800b2cdb30051c0b300200020003ff5070043
:10450800b2cdb30061c0b300200020003bf5070026
:10451800f2cdb30071c0b3002000200037f50700ca
:10452800f2cdb30081c0b3002000200033f50700ae
:104538004b003700b2cdb30031c0b30020002000db
:104548002ef50700b2cdb30041c0b3002000200013
:104558002af50700b2cdb30051c0b30020002000f7
:1045680026f50700b2cdb30061c0b30020002000db
:1045780022f5070000c1eb0071c0b3002000200045
:104588001ef5070000c1eb0081c0b3002000200029
:104598001af5070032003700f2c1b30031c0b3008a
:1045a8002000200015f50700f2c1b30041c0b30098
:1045b8002000200011f5070082c1b30051c0b300ec
:1045c800200020000df5070082c1b30061c0b300d0
:1045d8002000200009f5070000c1eb0071c0b300fe
:1045e8002000200005f5070000c1eb0081c0b300e2
:1045f8002000200001f5070019003700f2cdb300b4
:1046080031c0b30020002000fcf40700f2cdb30055
:1046180041c0b30020002000f8f40700b2cdb30079
:1046280051c0b30020002000f4f40700b2cdb3005d
:1046380061c0b30020002000f0f40700b2cfb3003f
:1046480071c0b30020002000ecf40700b2cfb30023
:1046580081c0b30020002000e8f40700000000003b
:104668000080fa00000006000800fa0030079800f1
:10467800be02900044062000110009008482d80080
:1046880000027800050020000400be00bcf207000c
:104698000002be000400be00bbf207000002be001c
:1046a8000400be009bf207000002be00044f780021
:1046b8001e427800c509200005a2b900040278004e
:1046c800844278003e0290000442780004c242000e
:1046d800144798001e4290008482fb00a40020002a
:1046e800110009008482d80001027800244798004c
:1046f8001e4290008482fb002e4290000482fb0040
:1047080084825200a4002000110009008402d8000d
:1047180000027800344798001e4278008482fb002b
:10472800a4002000110009008482d800010278004a
:10473800444798001e4278008482fb004e42900055
:104748000482fb0084825200a400200011000900aa
:104758008402d80000027800544798000041eb001a
:1047680011c0b30010002000a4f407000041eb00c2
:1047780081c0b30010002000a0f407000041eb0046
:1047880091c0b300100020009cf407000041eb002a
:1047980001c1b3001000200098f407000041eb00ad
:1047a80011c0b3002000200094f407000041eb0082
:1047b80081c0b3002000200090f407000041eb0006
:1047c80091c0b300200020008cf407000041eb00ea
:1047d80001c1b3002000200088f407005e42900069
:1047e8000482fb00cfa2de00960020000700200014
:1047f800860f5200878f5a0001013e0004600100b5
:104808000900370021003700390037005100370010
:10481800690037008100370099003700b100370080
:10482800c5003700dd00370000c1eb0021c0b30030
:104838001000200071f4070000c1eb0031c0b30084
:10484800100020006df4070032ccb30041c0b30063
:104858001000200069f4070032ccb30051c0b30047
:104868001000200065f4070000c1eb0061c0b30030
:104878001000200061f4070000c1eb0071c0b30014
:10488800100020005df40700dd0037000041eb0058
:1048980021c0b3001000200058f407000041eb00cd
:1048a80031c0b3001000200054f407000041eb00b1
:1048b80041c0b3001000200050f407000041eb0095
:1048c80051c0b300100020004cf4070000c1eb00f9
:1048d80061c0b3001000200048f4070000c1eb00dd
:1048e80071c0b3001000200044f40700c400370072
:1048f800b2cfb30021c0b300100020003ff407007e
:10490800b2cfb30031c0b300100020003bf4070061
:10491800b2cdb30041c0b3001000200037f4070047
:10492800b2cdb30051c0b3001000200033f407002b
:10493800f2cdb30061c0b300100020002ff40700cf
:10494800f2cdb30071c0b300100020002bf40700b3
:10495800ab003700b2cdb30021c0b3001000200077
:1049680026f40700b2cdb30031c0b3001000200018
:1049780022f40700b2cdb30041c0b30010002000fc
:104988001ef40700b2cdb30051c0b30010002000e0
:104998001af4070000c1eb0061c0b300100020004a
:1049a80016f4070000c1eb0071c0b300100020002e
:1049b80012f4070092003700f2c1b30021c0b3001f
:1049c800100020000df40700f2c1b30031c0b3009d
:1049d8001000200009f4070082c1b30041c0b300f1
:1049e8001000200005f4070082c1b30051c0b300d5
:1049f8001000200001f4070000c1eb0061c0b30003
:104a080010002000fdf3070000c1eb0071c0b300e7
:104a180010002000f9f3070079003700f2cdb30049
:104a280021c0b30010002000f4f30700f2cdb3005a
:104a380031c0b30010002000f0f30700b2cdb3007e
:104a480041c0b30010002000ecf30700b2cdb30062
:104a580051c0b30010002000e8f30700b2cfb30044
:104a680061c0b30010002000e4f30700b2cfb30028
:104a780071c0b30010002000e0f3070060003700a9
:104a880000c1eb0021c0b30010002000dbf30700d9
:104a980000c1eb0031c0b30010002000d7f30700bd
:104aa800b2cdb30041c0b30010002000d3f307001b
:104ab800b2cdb30051c0b30010002000cff30700ff
:104ac800b2cfb30061c0b30010002000cbf30700e1
:104ad800b2cfb30071c0b30010002000c7f30700c5
:104ae8004700370032c0b30031c0b30010002000c7
:104af800c2f3070032c0b30041c0b3001000200069
:104b0800bef3070032c0b30051c0b300100020004c
:104b1800baf3070000c1eb0061c0b3001000200029
:104b2800b6f3070000c1eb0071c0b300100020000d
:104b3800b2f307003200370000c1eb0021c0b30018
:104b480010002000adf3070000c1eb0031c0b30036
:104b580010002000a9f30700b2cdb30041c0b30094
:104b680010002000a5f30700b2cdb30051c0b30078
:104b780010002000a1f3070000c1eb0061c0b300e2
:104b8800100020009df3070000c1eb0071c0b300c6
:104b98001000200099f3070019003700f2cdb30088
:104ba80021c0b3001000200094f30700f2cdb30039
:104bb80031c0b3001000200090f30700b2cdb3005d
:104bc80041c0b300100020008cf30700b2cdb30041
:104bd80051c0b3001000200088f3070000c1eb00ab
:104be80061c0b3001000200084f3070000c1eb008f
:104bf80071c0b3001000200080f30700000000001f
:104c08004e4290000482fb00cfa2de0096002000f6
:104c180007002000860f5200878f5a0001013e00ce
:104c2800046001000900370021003700390037000f
:104c380051003700690037008100370099003700bc
:104c4800b1003700c5003700dd00370000c1eb00b8
:104c5800a1c0b3001000200068f3070000c1eb00fa
:104c6800b1c0b3001000200064f3070032ccb300d9
:104c7800c1c0b3001000200060f3070032ccb300bd
:104c8800d1c0b300100020005cf3070000c1eb00a6
:104c9800e1c0b3001000200058f3070000c1eb008a
:104ca800f1c0b3001000200054f30700dd00370006
:104cb8000041eb00a1c0b300100020004ff3070033
:104cc8000041eb00b1c0b300100020004bf3070017
:104cd8000041eb00c1c0b3001000200047f30700fb
:104ce8000041eb00d1c0b3001000200043f30700df
:104cf80000c1eb00e1c0b300100020003ff3070043
:104d080000c1eb00f1c0b300100020003bf3070026
:104d1800c4003700b2cfb300a1c0b3001000200018
:104d280036f30700b2cfb300b1c0b30010002000c3
:104d380032f30700b2cdb300c1c0b30010002000a9
:104d48002ef30700b2cdb300d1c0b300100020008d
:104d58002af30700f2cdb300e1c0b3001000200031
:104d680026f30700f2cdb300f1c0b3001000200015
:104d780022f30700ab003700b2cdb300a1c0b300e7
:104d8800100020001df30700b2cdb300b1c0b3007e
:104d98001000200019f30700b2cdb300c1c0b30062
:104da8001000200015f30700b2cdb300d1c0b30046
:104db8001000200011f3070000c1eb00e1c0b300b0
:104dc800100020000df3070000c1eb00f1c0b30094
:104dd8001000200009f3070092003700f2c1b30069
:104de800a1c0b3001000200004f30700f2c1b30013
:104df800b1c0b3001000200000f3070082c1b30067
:104e0800c1c0b30010002000fcf2070082c1b3004b
:104e1800d1c0b30010002000f8f2070000c1eb0079
:104e2800e1c0b30010002000f4f2070000c1eb005d
:104e3800f1c0b30010002000f0f20700790037003d
:104e4800f2cdb300a1c0b30010002000ebf20700c0
:104e5800f2cdb300b1c0b30010002000e7f20700a4
:104e6800b2cdb300c1c0b30010002000e3f20700c8
:104e7800b2cdb300d1c0b30010002000dff20700ac
:104e8800b2cfb300e1c0b30010002000dbf207008e
:104e9800b2cfb300f1c0b30010002000d7f2070072
:104ea8006000370000c1eb00a1c0b3001000200073
:104eb800d2f2070000c1eb00b1c0b300100020001f
:104ec800cef20700b2cdb300c1c0b300100020007d
:104ed800caf20700b2cdb300d1c0b3001000200061
:104ee800c6f20700b2cfb300e1c0b3001000200043
:104ef800c2f20700b2cfb300f1c0b3001000200027
:104f0800bef207004700370032c0b300b1c0b3009b
:104f180010002000b9f2070032c0b300c1c0b300ce
:104f280010002000b5f2070032c0b300d1c0b300b2
:104f380010002000b1f2070000c1eb00e1c0b3008f
:104f480010002000adf2070000c1eb00f1c0b30073
:104f580010002000a9f207003200370000c1eb0062
:104f6800a1c0b30010002000a4f2070000c1eb00ac
:104f7800b1c0b30010002000a0f20700b2cdb3000a
:104f8800c1c0b300100020009cf20700b2cdb300ee
:104f9800d1c0b3001000200098f2070000c1eb0058
:104fa800e1c0b3001000200094f2070000c1eb003c
:104fb800f1c0b3001000200090f20700190037007c
:104fc800f2cdb300a1c0b300100020008bf207009f
:104fd800f2cdb300b1c0b3001000200087f2070083
:104fe800b2cdb300c1c0b3001000200083f20700a7
:104ff800b2cdb300d1c0b300100020007ff207008b
:1050080000c1eb00e1c0b300100020007bf20700f4
:1050180000c1eb00f1c0b3001000200077f20700d8
:10502800000000003e4290000482fb00cfa2de0098
:105038009600200007002000860f5200878f5a0034
:1050480001013e000460010009003700210037001b
:1050580039003700510037006900370081003700f8
:1050680099003700b1003700c5003700dd00370070
:1050780000c1eb0021c0b300200020005ff2070050
:1050880000c1eb0031c0b300200020005bf2070034
:1050980032ccb30041c0b3002000200057f2070013
:1050a80032ccb30051c0b3002000200053f20700f7
:1050b80000c1eb0061c0b300200020004ff20700e0
:1050c80000c1eb0071c0b300200020004bf20700c4
:1050d800dd0037000041eb0021c0b30020002000b4
:1050e80046f207000041eb0031c0b3002000200069
:1050f80042f207000041eb0041c0b300200020004d
:105108003ef207000041eb0051c0b3002000200030
:105118003af2070000c1eb0061c0b3002000200094
:1051280036f2070000c1eb0071c0b3002000200078
:1051380032f20700c4003700b2cfb30021c0b30079
:10514800200020002df20700b2cfb30031c0b30019
:105158002000200029f20700b2cdb30041c0b300ff
:105168002000200025f20700b2cdb30051c0b300e3
:105178002000200021f20700f2cdb30061c0b30087
:10518800200020001df20700f2cdb30071c0b3006b
:105198002000200019f20700ab003700b2cdb300a1
:1051a80021c0b3002000200014f20700b2cdb300e4
:1051b80031c0b3002000200010f20700b2cdb300c8
:1051c80041c0b300200020000cf20700b2cdb300ac
:1051d80051c0b3002000200008f2070000c1eb0016
:1051e80061c0b3002000200004f2070000c1eb00fa
:1051f80071c0b3002000200000f2070092003700c1
:10520800f2c1b30021c0b30020002000fbf1070069
:10521800f2c1b30031c0b30020002000f7f107004d
:1052280082c1b30041c0b30020002000f3f10700a1
:1052380082c1b30051c0b30020002000eff1070085
:1052480000c1eb0061c0b30020002000ebf10700b3
:1052580000c1eb0071c0b30020002000e7f1070097
:1052680079003700f2cdb30021c0b3002000200040
:10527800e2f10700f2cdb30031c0b30020002000f6
:10528800def10700b2cdb30041c0b300200020001a
:10529800daf10700b2cdb30051c0b30020002000fe
:1052a800d6f10700b2cfb30061c0b30020002000e0
:1052b800d2f10700b2cfb30071c0b30020002000c4
:1052c800cef107006000370000c1eb0021c0b30039
:1052d80020002000c9f1070000c1eb0031c0b30075
:1052e80020002000c5f10700b2cdb30041c0b300d3
:1052f80020002000c1f10700b2cdb30051c0b300b7
:1053080020002000bdf1070000c1eb0061c0b30020
:1053180020002000b9f1070000c1eb0071c0b30004
:1053280020002000b5f107004700370032c0b30065
:1053380031c0b30020002000b0f1070032c0b30034
:1053480041c0b30020002000acf1070032c0b30018
:1053580051c0b30020002000a8f1070000c1eb00f5
:1053680061c0b30020002000a4f1070000c1eb00d9
:1053780071c0b30020002000a0f107003200370000
:1053880000c1eb0021c0b300200020009bf1070002
:1053980000c1eb0031c0b3002000200097f10700e6
:1053a800b2cdb30041c0b3002000200093f1070044
:1053b800b2cdb30051c0b300200020008ff1070028
:1053c80000c1eb0061c0b300200020008bf1070092
:1053d80000c1eb0071c0b3002000200087f1070076
:1053e80019003700f2cdb30021c0b300200020001f
:1053f80082f10700f2cdb30031c0b30020002000d5
:105408007ef10700b2cdb30041c0b30020002000f8
:105418007af10700b2cdb30051c0b30020002000dc
:1054280076f1070000c1eb0061c0b3002000200046
:1054380072f1070000c1eb0071c0b300200020002a
:105448006ef10700000000002e4290000482fb006d
:10545800cfa2de009600200007002000860f520031
:10546800878f5a0005013e000460010009003700db
:105478002100370039003700510037006900370034
:105488008100370099003700b1003700c9003700a4
:10549800e100370000c1eb00a1c0b30020002000ec
:1054a80056f1070000c1eb00b1c0b3002000200096
:1054b80052f1070032ccb300c1c0b3002000200075
:1054c8004ef1070032ccb300d1c0b3002000200059
:1054d8004af1070000c1eb00e1c0b3002000200042
:1054e80046f1070000c1eb00f1c0b3002000200026
:1054f80042f10700e10037000041eb00a1c0b30012
:10550800200020003df107000041eb00b1c0b300ce
:105518002000200039f107000041eb00c1c0b300b2
:105528002000200035f107000041eb00d1c0b30096
:105538002000200031f1070000c1eb00e1c0b300fa
:10554800200020002df1070000c1eb00f1c0b300de
:105558002000200029f10700c8003700b2cfb300af
:10556800a1c0b3002000200024f10700b2cfb3008f
:10557800b1c0b3002000200020f10700b2cdb30075
:10558800c1c0b300200020001cf10700b2cdb30059
:10559800d1c0b3002000200018f10700f2cdb300fd
:1055a800e1c0b3002000200014f10700f2cdb300e1
:1055b800f1c0b3002000200010f10700af00370051
:1055c800b2cdb300a1c0b300200020000bf107004a
:1055d800b2cdb300b1c0b3002000200007f107002e
:1055e800b2cdb300c1c0b3002000200003f1070012
:1055f800b2cdb300d1c0b30020002000fff00700f7
:1056080000c1eb00e1c0b30020002000fbf0070060
:1056180000c1eb00f1c0b30020002000f7f0070044
:1056280096003700f2c1b300a1c0b30020002000eb
:10563800f2f00700f2c1b300b1c0b30020002000af
:10564800eef0070082c1b300c1c0b3002000200003
:10565800eaf0070082c1b300d1c0b30020002000e7
:10566800e6f0070000c1eb00e1c0b3002000200015
:10567800e2f0070000c1eb00f1c0b30020002000f9
:10568800def007007d003700f2cdb300a1c0b30003
:1056980020002000d9f00700f2cdb300b1c0b3005c
:1056a80020002000d5f00700b2cdb300c1c0b30080
:1056b80020002000d1f00700b2cdb300d1c0b30064
:1056c80020002000cdf00700b2cfb300e1c0b30046
:1056d80020002000c9f00700b2cfb300f1c0b3002a
:1056e80020002000c5f007006400370000c1eb006f
:1056f800a1c0b30020002000c0f0070000c1eb00eb
:10570800b1c0b30020002000bcf00700b2cdb30048
:10571800c1c0b30020002000b8f00700b2cdb3002c
:10572800d1c0b30020002000b4f00700b2cfb3000e
:10573800e1c0b30020002000b0f00700b2cfb300f2
:10574800f1c0b30020002000acf007004b00370088
:105758000041eb00a1c0b30020002000a7f0070023
:1057680032c0b300b1c0b30020002000a3f007008e
:1057780032c0b300c1c0b300200020009ff0070072
:1057880032c0b300d1c0b300200020009bf0070056
:1057980000c1eb00e1c0b3002000200097f0070033
:1057a80000c1eb00f1c0b3002000200093f0070017
:1057b8003200370000c1eb00a1c0b3002000200078
:1057c8008ef0070000c1eb00b1c0b300200020003c
:1057d8008af00700b2cdb300c1c0b300200020009a
:1057e80086f00700b2cdb300d1c0b300200020007e
:1057f80082f0070000c1eb00e1c0b30020002000e8
:105808007ef0070000c1eb00f1c0b30020002000cb
:105818007af0070019003700f2cdb300a1c0b30039
:105828002000200075f00700f2cdb300b1c0b3002e
:105838002000200071f00700b2cdb300c1c0b30052
:10584800200020006df00700b2cdb300d1c0b30036
:105858002000200069f0070000c1eb00e1c0b300a0
:105868002000200065f0070000c1eb00f1c0b30084
:105878002000200061f00700000000000080fa000e
:10588800000006000000fa000041eb0011c0b30060
:105898001000200059f007000041eb0021c0b300c0
:1058a8001000200055f007000041eb0031c0b300a4
:1058b8001000200051f007000041eb0041c0b30088
:1058c800100020004df007000041eb0051c0b3006c
:1058d8001000200049f007000041eb0061c0b30050
:1058e8001000200045f007000041eb0071c0b30034
:1058f8001000200041f007000041eb0081c0b30018
:10590800100020003df007000041eb0091c0b300fb
:105918001000200039f007000041eb00a1c0b300df
:105928001000200035f007000041eb00b1c0b300c3
:105938001000200031f007000041eb00c1c0b300a7
:10594800100020002df007000041eb00d1c0b3008b
:105958001000200029f0070032ccb300e1c0b300ea
:105968001000200025f0070052cab300f1c0b300b0
:105978001000200021f0070092c9b30001c1b30054
:10598800100020001df0070092c9b30011c0b30039
:105998002000200019f0070052cab30021c0b3004c
:1059a8002000200015f0070032ccb30031c0b3004e
:1059b8002000200011f007000041eb0041c0b300b7
:1059c800200020000df007000041eb0051c0b3009b
:1059d8002000200009f007000041eb0061c0b3007f
:1059e8002000200005f007000041eb0071c0b30063
:1059f8002000200001f007000041eb0081c0b30047
:105a080020002000fdef07000041eb0091c0b3002b
:105a180020002000f9ef07000041eb00a1c0b3000f
:105a280020002000f5ef07000041eb00b1c0b300f3
:105a380020002000f1ef07000041eb00c1c0b300d7
:105a480020002000edef07000041eb00d1c0b300bb
:105a580020002000e9ef07000041eb00e1c0b3009f
:105a680020002000e5ef07000041eb00f1c0b30083
:105a780020002000e1ef07000041eb0001c1b30066
